{
  "_format": "hh-sol-artifact-1",
  "contractName": "ModularCompliance",
  "sourceName": "contracts/compliance/ModularCompliance.sol",
  "abi": [
    {
      "inputs": [],
      "stateMutability": "nonpayable",
      "type": "constructor"
    },
    {
      "inputs": [
        {
          "internalType": "address",
          "name": "owner",
          "type": "address"
        }
      ],
      "name": "OwnableInvalidOwner",
      "type": "error"
    },
    {
      "inputs": [
        {
          "internalType": "address",
          "name": "account",
          "type": "address"
        }
      ],
      "name": "OwnableUnauthorizedAccount",
      "type": "error"
    },
    {
      "anonymous": false,
      "inputs": [
        {
          "indexed": true,
          "internalType": "uint256",
          "name": "complianceId",
          "type": "uint256"
        }
      ],
      "name": "ComplianceAdded",
      "type": "event"
    },
    {
      "anonymous": false,
      "inputs": [
        {
          "indexed": true,
          "internalType": "uint256",
          "name": "complianceId",
          "type": "uint256"
        }
      ],
      "name": "ComplianceRemoved",
      "type": "event"
    },
    {
      "anonymous": false,
      "inputs": [
        {
          "indexed": true,
          "internalType": "uint256",
          "name": "oldComplianceId",
          "type": "uint256"
        },
        {
          "indexed": true,
          "internalType": "uint256",
          "name": "newComplianceId",
          "type": "uint256"
        }
      ],
      "name": "ComplianceReplaced",
      "type": "event"
    },
    {
      "anonymous": false,
      "inputs": [
        {
          "indexed": true,
          "internalType": "address",
          "name": "previousOwner",
          "type": "address"
        },
        {
          "indexed": true,
          "internalType": "address",
          "name": "newOwner",
          "type": "address"
        }
      ],
      "name": "OwnershipTransferred",
      "type": "event"
    },
    {
      "anonymous": false,
      "inputs": [
        {
          "indexed": true,
          "internalType": "address",
          "name": "token",
          "type": "address"
        }
      ],
      "name": "TokenBound",
      "type": "event"
    },
    {
      "anonymous": false,
      "inputs": [
        {
          "indexed": true,
          "internalType": "address",
          "name": "token",
          "type": "address"
        }
      ],
      "name": "TokenUnbound",
      "type": "event"
    },
    {
      "inputs": [],
      "name": "COUNTRY_RESTRICTION",
      "outputs": [
        {
          "internalType": "uint256",
          "name": "",
          "type": "uint256"
        }
      ],
      "stateMutability": "view",
      "type": "function"
    },
    {
      "inputs": [],
      "name": "DAILY_LIMIT",
      "outputs": [
        {
          "internalType": "uint256",
          "name": "",
          "type": "uint256"
        }
      ],
      "stateMutability": "view",
      "type": "function"
    },
    {
      "inputs": [],
      "name": "HOLDING_LIMIT",
      "outputs": [
        {
          "internalType": "uint256",
          "name": "",
          "type": "uint256"
        }
      ],
      "stateMutability": "view",
      "type": "function"
    },
    {
      "inputs": [],
      "name": "INVESTOR_LIMIT",
      "outputs": [
        {
          "internalType": "uint256",
          "name": "",
          "type": "uint256"
        }
      ],
      "stateMutability": "view",
      "type": "function"
    },
    {
      "inputs": [],
      "name": "WHITELIST_ONLY",
      "outputs": [
        {
          "internalType": "uint256",
          "name": "",
          "type": "uint256"
        }
      ],
      "stateMutability": "view",
      "type": "function"
    },
    {
      "inputs": [
        {
          "internalType": "uint256",
          "name": "_complianceId",
          "type": "uint256"
        }
      ],
      "name": "addCompliance",
      "outputs": [],
      "stateMutability": "nonpayable",
      "type": "function"
    },
    {
      "inputs": [
        {
          "internalType": "address",
          "name": "_investor",
          "type": "address"
        }
      ],
      "name": "addToWhitelist",
      "outputs": [],
      "stateMutability": "nonpayable",
      "type": "function"
    },
    {
      "inputs": [
        {
          "internalType": "address",
          "name": "_token",
          "type": "address"
        }
      ],
      "name": "bindToken",
      "outputs": [],
      "stateMutability": "nonpayable",
      "type": "function"
    },
    {
      "inputs": [
        {
          "internalType": "address",
          "name": "_from",
          "type": "address"
        },
        {
          "internalType": "address",
          "name": "_to",
          "type": "address"
        },
        {
          "internalType": "uint256",
          "name": "_amount",
          "type": "uint256"
        }
      ],
      "name": "canTransfer",
      "outputs": [
        {
          "internalType": "bool",
          "name": "",
          "type": "bool"
        }
      ],
      "stateMutability": "view",
      "type": "function"
    },
    {
      "inputs": [
        {
          "internalType": "address",
          "name": "_to",
          "type": "address"
        },
        {
          "internalType": "uint256",
          "name": "_amount",
          "type": "uint256"
        }
      ],
      "name": "created",
      "outputs": [],
      "stateMutability": "nonpayable",
      "type": "function"
    },
    {
      "inputs": [
        {
          "internalType": "address",
          "name": "_from",
          "type": "address"
        },
        {
          "internalType": "uint256",
          "name": "_amount",
          "type": "uint256"
        }
      ],
      "name": "destroyed",
      "outputs": [],
      "stateMutability": "nonpayable",
      "type": "function"
    },
    {
      "inputs": [],
      "name": "getComplianceIds",
      "outputs": [
        {
          "internalType": "uint256[]",
          "name": "",
          "type": "uint256[]"
        }
      ],
      "stateMutability": "view",
      "type": "function"
    },
    {
      "inputs": [
        {
          "internalType": "uint256",
          "name": "_complianceId",
          "type": "uint256"
        }
      ],
      "name": "isComplianceAdded",
      "outputs": [
        {
          "internalType": "bool",
          "name": "",
          "type": "bool"
        }
      ],
      "stateMutability": "view",
      "type": "function"
    },
    {
      "inputs": [
        {
          "internalType": "address",
          "name": "_token",
          "type": "address"
        }
      ],
      "name": "isTokenBound",
      "outputs": [
        {
          "internalType": "bool",
          "name": "",
          "type": "bool"
        }
      ],
      "stateMutability": "view",
      "type": "function"
    },
    {
      "inputs": [],
      "name": "owner",
      "outputs": [
        {
          "internalType": "address",
          "name": "",
          "type": "address"
        }
      ],
      "stateMutability": "view",
      "type": "function"
    },
    {
      "inputs": [
        {
          "internalType": "uint256",
          "name": "_complianceId",
          "type": "uint256"
        }
      ],
      "name": "removeCompliance",
      "outputs": [],
      "stateMutability": "nonpayable",
      "type": "function"
    },
    {
      "inputs": [
        {
          "internalType": "address",
          "name": "_investor",
          "type": "address"
        }
      ],
      "name": "removeFromWhitelist",
      "outputs": [],
      "stateMutability": "nonpayable",
      "type": "function"
    },
    {
      "inputs": [],
      "name": "renounceOwnership",
      "outputs": [],
      "stateMutability": "nonpayable",
      "type": "function"
    },
    {
      "inputs": [
        {
          "internalType": "uint256",
          "name": "_oldComplianceId",
          "type": "uint256"
        },
        {
          "internalType": "uint256",
          "name": "_newComplianceId",
          "type": "uint256"
        }
      ],
      "name": "replaceCompliance",
      "outputs": [],
      "stateMutability": "nonpayable",
      "type": "function"
    },
    {
      "inputs": [
        {
          "internalType": "uint256",
          "name": "_limit",
          "type": "uint256"
        }
      ],
      "name": "setDailyLimit",
      "outputs": [],
      "stateMutability": "nonpayable",
      "type": "function"
    },
    {
      "inputs": [
        {
          "internalType": "uint256",
          "name": "_percentage",
          "type": "uint256"
        }
      ],
      "name": "setMaxHoldingPercentage",
      "outputs": [],
      "stateMutability": "nonpayable",
      "type": "function"
    },
    {
      "inputs": [
        {
          "internalType": "uint256",
          "name": "_max",
          "type": "uint256"
        }
      ],
      "name": "setMaxInvestors",
      "outputs": [],
      "stateMutability": "nonpayable",
      "type": "function"
    },
    {
      "inputs": [
        {
          "internalType": "uint256",
          "name": "_countryCode",
          "type": "uint256"
        },
        {
          "internalType": "bool",
          "name": "_restricted",
          "type": "bool"
        }
      ],
      "name": "setRestrictedCountry",
      "outputs": [],
      "stateMutability": "nonpayable",
      "type": "function"
    },
    {
      "inputs": [
        {
          "internalType": "bool",
          "name": "_enabled",
          "type": "bool"
        }
      ],
      "name": "setWhitelistEnabled",
      "outputs": [],
      "stateMutability": "nonpayable",
      "type": "function"
    },
    {
      "inputs": [
        {
          "internalType": "address",
          "name": "newOwner",
          "type": "address"
        }
      ],
      "name": "transferOwnership",
      "outputs": [],
      "stateMutability": "nonpayable",
      "type": "function"
    },
    {
      "inputs": [
        {
          "internalType": "address",
          "name": "_from",
          "type": "address"
        },
        {
          "internalType": "address",
          "name": "_to",
          "type": "address"
        },
        {
          "internalType": "uint256",
          "name": "_amount",
          "type": "uint256"
        }
      ],
      "name": "transferred",
      "outputs": [],
      "stateMutability": "nonpayable",
      "type": "function"
    },
    {
      "inputs": [
        {
          "internalType": "address",
          "name": "_token",
          "type": "address"
        }
      ],
      "name": "unbindToken",
      "outputs": [],
      "stateMutability": "nonpayable",
      "type": "function"
    }
  ],
  "bytecode": "0x608060405260c8600555600a60085569d3c21bcecceda1000000600a553480156200002957600080fd5b5033806200005257604051631e4fbdf760e01b8152600060048201526024015b60405180910390fd5b6200005d8162000088565b506200006a6001620000d8565b620000766002620000d8565b620000826003620000d8565b620001af565b600080546001600160a01b038381166001600160a01b0319831681178455604051919092169283917f8be0079c531659141344cd1fd0a4f28419497f9722a3daafe3b4186f6b6457e09190a35050565b60008181526002602052604090205460ff1615620001395760405162461bcd60e51b815260206004820152601860248201527f436f6d706c69616e636520616c72656164792061646465640000000000000000604482015260640162000049565b600081815260026020526040808220805460ff1916600190811790915560038054918201815583527fc2575a0e9e593c00f959f8c92f12db2869c3395a3b0502d05e2516446f71f85b018390555182917fdd767554abbf56e69e51bb15d4306b6bda090e63bdcd000eece7d00c3f4aef4091a250565b6116cb80620001bf6000396000f3fe608060405234801561001057600080fd5b50600436106101a95760003560e01c80638ab1d681116100f9578063d007f43611610097578063e440ec5911610071578063e440ec591461036a578063e46638e614610372578063f2fde38b14610385578063fdf13b041461039857600080fd5b8063d007f4361461033c578063d4921b591461034f578063e43252d71461035757600080fd5b80638da5cb5b116100d35780638da5cb5b146102c7578063993e8b95146102e2578063b20d30a914610314578063bdc649271461032757600080fd5b80638ab1d6811461028e5780638baf29b4146102a15780638d2ea772146102b457600080fd5b806340db3b50116101665780634f667ddf116101405780634f667ddf1461024d5780635f8dead3146102605780636fdc72c214610273578063715018a61461028657600080fd5b806340db3b501461021f5780634a88e125146102325780634d05f6ea1461024557600080fd5b8063052d9e7e146101ae5780630d5271e1146101c3578063248ec326146101de5780632d5dee5d146101e657806335e896c1146101f95780633ff5aa021461020c575b600080fd5b6101c16101bc3660046113cc565b6103bb565b005b6101cb600581565b6040519081526020015b60405180910390f35b6101cb600481565b6101c16101f43660046113e7565b6103d6565b6101c16102073660046113e7565b61042e565b6101c161021a366004611415565b61043b565b6101c161022d366004611415565b61052a565b6101c1610240366004611432565b6105c8565b6101cb600181565b6101c161025b3660046113e7565b6105f0565b6101c161026e36600461145e565b610749565b6101c16102813660046113e7565b6107fe565b6101c1610812565b6101c161029c366004611415565b610826565b6101c16102af36600461148a565b61084f565b6101c16102c236600461145e565b610ac3565b6000546040516001600160a01b0390911681526020016101d5565b6103046102f0366004611415565b6001546001600160a01b0391821691161490565b60405190151581526020016101d5565b6101c16103223660046113e7565b610be2565b61032f610bef565b6040516101d591906114cb565b6101c161034a36600461150f565b610c47565b6101cb600381565b6101c1610365366004611415565b610dce565b6101cb600281565b61030461038036600461148a565b610dfa565b6101c1610393366004611415565b61122a565b6103046103a63660046113e7565b60009081526002602052604090205460ff1690565b6103c3611265565b600c805460ff1916911515919091179055565b6103de611265565b60648111156104295760405162461bcd60e51b8152602060048201526012602482015271496e76616c69642070657263656e7461676560701b60448201526064015b60405180910390fd5b600855565b610436611265565b600555565b610443611265565b6001600160a01b0381166104915760405162461bcd60e51b8152602060048201526015602482015274496e76616c696420746f6b656e206164647265737360581b6044820152606401610420565b6001546001600160a01b0316156104e05760405162461bcd60e51b8152602060048201526013602482015272151bdad95b88185b1c9958591e48189bdd5b99606a1b6044820152606401610420565b600180546001600160a01b0319166001600160a01b0383169081179091556040517f2de35142b19ed5a07796cf30791959c592018f70b1d2d7c460eef8ffe713692b90600090a250565b610532611265565b6001546001600160a01b038281169116146105815760405162461bcd60e51b815260206004820152600f60248201526e151bdad95b881b9bdd08189bdd5b99608a1b6044820152606401610420565b600180546001600160a01b03191690556040516001600160a01b038216907f28a4ca7134a3b3f9aff286e79ad3daadb4a06d1b43d037a3a98bdc074edd9b7a90600090a250565b6105d0611265565b600091825260046020526040909120805460ff1916911515919091179055565b6105f8611265565b60008181526002602052604090205460ff1661064d5760405162461bcd60e51b815260206004820152601460248201527310dbdb5c1b1a585b98d9481b9bdd08199bdd5b9960621b6044820152606401610420565b6000818152600260205260408120805460ff191690555b60035481101561071a57816003828154811061068257610682611531565b90600052602060002001540361070857600380546106a29060019061155d565b815481106106b2576106b2611531565b9060005260206000200154600382815481106106d0576106d0611531565b60009182526020909120015560038054806106ed576106ed611576565b6001900381819060005260206000200160009055905561071a565b806107128161158c565b915050610664565b5060405181907f5ef012c18070f4363d1f4fa48e0af5b871f8f8b2b1fb1b99eb54550e367c39de90600090a250565b6001546001600160a01b031633146107735760405162461bcd60e51b8152600401610420906115a5565b600260008190526020526000805160206116768339815191525460ff16156107fa576001600160a01b03821660009081526006602052604090205460ff161580156107be5750600081115b156107fa576001600160a01b0382166000908152600660205260408120805460ff1916600117905560078054916107f48361158c565b91905055505b5050565b610806611265565b61080f81611292565b50565b61081a611265565b6108246000611367565b565b61082e611265565b6001600160a01b03166000908152600b60205260409020805460ff19169055565b6001546001600160a01b031633146108795760405162461bcd60e51b8152600401610420906115a5565b600260008190526020526000805160206116768339815191525460ff1615610a3c576001546001600160a01b0383811660009081526006602052604090205491169060ff1615801561093657506040516370a0823160e01b81526001600160a01b038481166004830152600091908316906370a0823190602401602060405180830381865afa158015610910573d6000803e3d6000fd5b505050506040513d601f19601f8201168201806040525081019061093491906115dc565b115b15610972576001600160a01b0383166000908152600660205260408120805460ff19166001179055600780549161096c8361158c565b91905055505b6001600160a01b03841660009081526006602052604090205460ff168015610a0157506040516370a0823160e01b81526001600160a01b0385811660048301528216906370a0823190602401602060405180830381865afa1580156109db573d6000803e3d6000fd5b505050506040513d601f19601f820116820180604052508101906109ff91906115dc565b155b15610a3a576001600160a01b0384166000908152600660205260408120805460ff191690556007805491610a34836115f5565b91905055505b505b600460005260026020527fee60d0579bcffd98e668647d59fec1ff86a7fb340ce572e844f234ae73a6918f5460ff1615610abe576000610a7f620151804261160c565b6001600160a01b0385166000908152600960209081526040808320848452909152812080549293508492909190610ab790849061162e565b9091555050505b505050565b6001546001600160a01b03163314610aed5760405162461bcd60e51b8152600401610420906115a5565b600260008190526020526000805160206116768339815191525460ff16156107fa576001546001600160a01b0383811660009081526006602052604090205491169060ff168015610ba557506040516370a0823160e01b81526001600160a01b0384811660048301528216906370a0823190602401602060405180830381865afa158015610b7f573d6000803e3d6000fd5b505050506040513d601f19601f82011682018060405250810190610ba391906115dc565b155b15610abe576001600160a01b0383166000908152600660205260408120805460ff191690556007805491610bd8836115f5565b9190505550505050565b610bea611265565b600a55565b60606003805480602002602001604051908101604052809291908181526020018280548015610c3d57602002820191906000526020600020905b815481526020019060010190808311610c29575b5050505050905090565b610c4f611265565b60008281526002602052604090205460ff16610cad5760405162461bcd60e51b815260206004820152601860248201527f4f6c6420636f6d706c69616e6365206e6f7420666f756e6400000000000000006044820152606401610420565b60008181526002602052604090205460ff1615610d0c5760405162461bcd60e51b815260206004820152601c60248201527f4e657720636f6d706c69616e636520616c7265616479206164646564000000006044820152606401610420565b600082815260026020526040808220805460ff19908116909155838352908220805490911660011790555b600354811015610d9c578260038281548110610d5557610d55611531565b906000526020600020015403610d8a578160038281548110610d7957610d79611531565b600091825260209091200155610d9c565b80610d948161158c565b915050610d37565b50604051819083907fb4a7704660f4bd924d699efe478c43591e246c346abcb53bf097fc14e4af4fc090600090a35050565b610dd6611265565b6001600160a01b03166000908152600b60205260409020805460ff19166001179055565b6001546000906001600160a01b0316610e1557506000611223565b600154604080516304d3863d60e21b815290516001600160a01b0390921691600091839163134e18f4916004808201926020929091908290030181865afa158015610e64573d6000803e3d6000fd5b505050506040513d601f19601f82011682018060405250810190610e889190611641565b600160005260026020527fe90b7bceb6e7df5418fb78d8ee546e97c83a08bbccc01a0644d599ccd2a7c2e05490915060ff1615610f5557604051637e42683b60e01b81526001600160a01b03868116600483015260009190831690637e42683b90602401602060405180830381865afa158015610f09573d6000803e3d6000fd5b505050506040513d601f19601f82011682018060405250810190610f2d91906115dc565b60008181526004602052604090205490915060ff1615610f535760009350505050611223565b505b600260008190526020526000805160206116768339815191525460ff1615610fb4576001600160a01b03851660009081526006602052604090205460ff16158015610fa4575060055460075410155b15610fb457600092505050611223565b600360005260026020527f88601476d11616a71c5be67555bd1dff4b1cbf21533d2669b768b61518cfe1c35460ff16156110fc576000826001600160a01b03166318160ddd6040518163ffffffff1660e01b8152600401602060405180830381865afa158015611028573d6000803e3d6000fd5b505050506040513d601f19601f8201168201806040525081019061104c91906115dc565b90506000606460085483611060919061165e565b61106a919061160c565b6040516370a0823160e01b81526001600160a01b03898116600483015291925082918891908716906370a0823190602401602060405180830381865afa1580156110b8573d6000803e3d6000fd5b505050506040513d601f19601f820116820180604052508101906110dc91906115dc565b6110e6919061162e565b11156110f9576000945050505050611223565b50505b600460005260026020527fee60d0579bcffd98e668647d59fec1ff86a7fb340ce572e844f234ae73a6918f5460ff161561118957600061113f620151804261160c565b600a546001600160a01b03891660009081526009602090815260408083208584529091529020549192509061117590879061162e565b11156111875760009350505050611223565b505b600560005260026020527fb98b78633099fa36ed8b8680c4f8092689e1e04080eb9cbb077ca38a14d7e3845460ff1680156111c65750600c5460ff165b1561121c576001600160a01b0386166000908152600b602052604090205460ff16158061120c57506001600160a01b0385166000908152600b602052604090205460ff16155b1561121c57600092505050611223565b6001925050505b9392505050565b611232611265565b6001600160a01b03811661125c57604051631e4fbdf760e01b815260006004820152602401610420565b61080f81611367565b6000546001600160a01b031633146108245760405163118cdaa760e01b8152336004820152602401610420565b60008181526002602052604090205460ff16156112f15760405162461bcd60e51b815260206004820152601860248201527f436f6d706c69616e636520616c726561647920616464656400000000000000006044820152606401610420565b600081815260026020526040808220805460ff1916600190811790915560038054918201815583527fc2575a0e9e593c00f959f8c92f12db2869c3395a3b0502d05e2516446f71f85b018390555182917fdd767554abbf56e69e51bb15d4306b6bda090e63bdcd000eece7d00c3f4aef4091a250565b600080546001600160a01b038381166001600160a01b0319831681178455604051919092169283917f8be0079c531659141344cd1fd0a4f28419497f9722a3daafe3b4186f6b6457e09190a35050565b803580151581146113c757600080fd5b919050565b6000602082840312156113de57600080fd5b611223826113b7565b6000602082840312156113f957600080fd5b5035919050565b6001600160a01b038116811461080f57600080fd5b60006020828403121561142757600080fd5b813561122381611400565b6000806040838503121561144557600080fd5b82359150611455602084016113b7565b90509250929050565b6000806040838503121561147157600080fd5b823561147c81611400565b946020939093013593505050565b60008060006060848603121561149f57600080fd5b83356114aa81611400565b925060208401356114ba81611400565b929592945050506040919091013590565b6020808252825182820181905260009190848201906040850190845b81811015611503578351835292840192918401916001016114e7565b50909695505050505050565b6000806040838503121561152257600080fd5b50508035926020909101359150565b634e487b7160e01b600052603260045260246000fd5b634e487b7160e01b600052601160045260246000fd5b8181038181111561157057611570611547565b92915050565b634e487b7160e01b600052603160045260246000fd5b60006001820161159e5761159e611547565b5060010190565b60208082526019908201527f4f6e6c7920626f756e6420746f6b656e2063616e2063616c6c00000000000000604082015260600190565b6000602082840312156115ee57600080fd5b5051919050565b60008161160457611604611547565b506000190190565b60008261162957634e487b7160e01b600052601260045260246000fd5b500490565b8082018082111561157057611570611547565b60006020828403121561165357600080fd5b815161122381611400565b80820281158282048414176115705761157061154756fe679795a0195a1b76cdebb7c51d74e058aee92919b8c3389af86ef24535e8a28ca2646970667358221220ebd0778117826f702bc550653ac499e0e0dc3ed43981d567f2d3f0c33f6bdb3664736f6c63430008140033",
  "linkReferences": {},
  "deployedLinkReferences": {}
}