{
  "_format": "hh-sol-artifact-1",
  "contractName": "IdentityRegistry",
  "sourceName": "contracts/registry/IdentityRegistry.sol",
  "abi": [
    {
      "inputs": [],
      "stateMutability": "nonpayable",
      "type": "constructor"
    },
    {
      "inputs": [
        {
          "internalType": "address",
          "name": "owner",
          "type": "address"
        }
      ],
      "name": "OwnableInvalidOwner",
      "type": "error"
    },
    {
      "inputs": [
        {
          "internalType": "address",
          "name": "account",
          "type": "address"
        }
      ],
      "name": "OwnableUnauthorizedAccount",
      "type": "error"
    },
    {
      "anonymous": false,
      "inputs": [
        {
          "indexed": true,
          "internalType": "address",
          "name": "investorAddress",
          "type": "address"
        },
        {
          "indexed": false,
          "internalType": "uint256",
          "name": "country",
          "type": "uint256"
        }
      ],
      "name": "CountryUpdated",
      "type": "event"
    },
    {
      "anonymous": false,
      "inputs": [
        {
          "indexed": true,
          "internalType": "address",
          "name": "investorAddress",
          "type": "address"
        },
        {
          "indexed": true,
          "internalType": "address",
          "name": "identity",
          "type": "address"
        },
        {
          "indexed": false,
          "internalType": "uint256",
          "name": "country",
          "type": "uint256"
        }
      ],
      "name": "IdentityAdded",
      "type": "event"
    },
    {
      "anonymous": false,
      "inputs": [
        {
          "indexed": true,
          "internalType": "address",
          "name": "agent",
          "type": "address"
        }
      ],
      "name": "IdentityRegistryAgentAdded",
      "type": "event"
    },
    {
      "anonymous": false,
      "inputs": [
        {
          "indexed": true,
          "internalType": "address",
          "name": "agent",
          "type": "address"
        }
      ],
      "name": "IdentityRegistryAgentRemoved",
      "type": "event"
    },
    {
      "anonymous": false,
      "inputs": [
        {
          "indexed": true,
          "internalType": "address",
          "name": "investorAddress",
          "type": "address"
        },
        {
          "indexed": true,
          "internalType": "address",
          "name": "identity",
          "type": "address"
        }
      ],
      "name": "IdentityRemoved",
      "type": "event"
    },
    {
      "anonymous": false,
      "inputs": [
        {
          "indexed": true,
          "internalType": "address",
          "name": "investorAddress",
          "type": "address"
        },
        {
          "indexed": true,
          "internalType": "address",
          "name": "identity",
          "type": "address"
        }
      ],
      "name": "IdentityUpdated",
      "type": "event"
    },
    {
      "anonymous": false,
      "inputs": [
        {
          "indexed": true,
          "internalType": "address",
          "name": "previousOwner",
          "type": "address"
        },
        {
          "indexed": true,
          "internalType": "address",
          "name": "newOwner",
          "type": "address"
        }
      ],
      "name": "OwnershipTransferred",
      "type": "event"
    },
    {
      "anonymous": false,
      "inputs": [
        {
          "indexed": true,
          "internalType": "address",
          "name": "identityStorage",
          "type": "address"
        }
      ],
      "name": "StorageSet",
      "type": "event"
    },
    {
      "anonymous": false,
      "inputs": [
        {
          "indexed": true,
          "internalType": "address",
          "name": "topicsRegistry",
          "type": "address"
        }
      ],
      "name": "TopicsRegistrySet",
      "type": "event"
    },
    {
      "inputs": [
        {
          "internalType": "address",
          "name": "_agent",
          "type": "address"
        }
      ],
      "name": "addAgent",
      "outputs": [],
      "stateMutability": "nonpayable",
      "type": "function"
    },
    {
      "inputs": [
        {
          "internalType": "address[]",
          "name": "_userAddresses",
          "type": "address[]"
        },
        {
          "internalType": "address[]",
          "name": "_identitiesArr",
          "type": "address[]"
        },
        {
          "internalType": "uint256[]",
          "name": "_countriesArr",
          "type": "uint256[]"
        }
      ],
      "name": "batchRegisterIdentity",
      "outputs": [],
      "stateMutability": "nonpayable",
      "type": "function"
    },
    {
      "inputs": [
        {
          "internalType": "address",
          "name": "_userAddress",
          "type": "address"
        }
      ],
      "name": "deleteIdentity",
      "outputs": [],
      "stateMutability": "nonpayable",
      "type": "function"
    },
    {
      "inputs": [
        {
          "internalType": "address",
          "name": "_userAddress",
          "type": "address"
        }
      ],
      "name": "identity",
      "outputs": [
        {
          "internalType": "address",
          "name": "",
          "type": "address"
        }
      ],
      "stateMutability": "view",
      "type": "function"
    },
    {
      "inputs": [],
      "name": "identityStorage",
      "outputs": [
        {
          "internalType": "address",
          "name": "",
          "type": "address"
        }
      ],
      "stateMutability": "view",
      "type": "function"
    },
    {
      "inputs": [
        {
          "internalType": "address",
          "name": "_userAddress",
          "type": "address"
        }
      ],
      "name": "investorCountry",
      "outputs": [
        {
          "internalType": "uint256",
          "name": "",
          "type": "uint256"
        }
      ],
      "stateMutability": "view",
      "type": "function"
    },
    {
      "inputs": [
        {
          "internalType": "address",
          "name": "_agent",
          "type": "address"
        }
      ],
      "name": "isAgent",
      "outputs": [
        {
          "internalType": "bool",
          "name": "",
          "type": "bool"
        }
      ],
      "stateMutability": "view",
      "type": "function"
    },
    {
      "inputs": [
        {
          "internalType": "address",
          "name": "_userAddress",
          "type": "address"
        }
      ],
      "name": "isVerified",
      "outputs": [
        {
          "internalType": "bool",
          "name": "",
          "type": "bool"
        }
      ],
      "stateMutability": "view",
      "type": "function"
    },
    {
      "inputs": [],
      "name": "owner",
      "outputs": [
        {
          "internalType": "address",
          "name": "",
          "type": "address"
        }
      ],
      "stateMutability": "view",
      "type": "function"
    },
    {
      "inputs": [
        {
          "internalType": "address",
          "name": "_userAddress",
          "type": "address"
        },
        {
          "internalType": "address",
          "name": "_identity",
          "type": "address"
        },
        {
          "internalType": "uint256",
          "name": "_country",
          "type": "uint256"
        }
      ],
      "name": "registerIdentity",
      "outputs": [],
      "stateMutability": "nonpayable",
      "type": "function"
    },
    {
      "inputs": [
        {
          "internalType": "address",
          "name": "_agent",
          "type": "address"
        }
      ],
      "name": "removeAgent",
      "outputs": [],
      "stateMutability": "nonpayable",
      "type": "function"
    },
    {
      "inputs": [],
      "name": "renounceOwnership",
      "outputs": [],
      "stateMutability": "nonpayable",
      "type": "function"
    },
    {
      "inputs": [
        {
          "internalType": "address",
          "name": "_claimTopicsRegistry",
          "type": "address"
        }
      ],
      "name": "setClaimTopicsRegistry",
      "outputs": [],
      "stateMutability": "nonpayable",
      "type": "function"
    },
    {
      "inputs": [
        {
          "internalType": "address",
          "name": "_identityRegistryStorage",
          "type": "address"
        }
      ],
      "name": "setIdentityRegistryStorage",
      "outputs": [],
      "stateMutability": "nonpayable",
      "type": "function"
    },
    {
      "inputs": [],
      "name": "topicsRegistry",
      "outputs": [
        {
          "internalType": "address",
          "name": "",
          "type": "address"
        }
      ],
      "stateMutability": "view",
      "type": "function"
    },
    {
      "inputs": [
        {
          "internalType": "address",
          "name": "newOwner",
          "type": "address"
        }
      ],
      "name": "transferOwnership",
      "outputs": [],
      "stateMutability": "nonpayable",
      "type": "function"
    },
    {
      "inputs": [
        {
          "internalType": "address",
          "name": "_userAddress",
          "type": "address"
        },
        {
          "internalType": "uint256",
          "name": "_country",
          "type": "uint256"
        }
      ],
      "name": "updateCountry",
      "outputs": [],
      "stateMutability": "nonpayable",
      "type": "function"
    },
    {
      "inputs": [
        {
          "internalType": "address",
          "name": "_userAddress",
          "type": "address"
        },
        {
          "internalType": "address",
          "name": "_identity",
          "type": "address"
        }
      ],
      "name": "updateIdentity",
      "outputs": [],
      "stateMutability": "nonpayable",
      "type": "function"
    }
  ],
  "bytecode": "0x608060405234801561001057600080fd5b50338061003757604051631e4fbdf760e01b81526000600482015260240160405180910390fd5b61004081610060565b50336000908152600360205260409020805460ff191660011790556100b0565b600080546001600160a01b038381166001600160a01b0319831681178455604051919092169283917f8be0079c531659141344cd1fd0a4f28419497f9722a3daafe3b4186f6b6457e09190a35050565b611094806100bf6000396000f3fe608060405234801561001057600080fd5b50600436106101165760003560e01c80638e098ca1116100a2578063d54ab1c711610071578063d54ab1c714610286578063f0eb5e5414610299578063f11abfd8146102c5578063f2fde38b146102d6578063f4d3abd1146102e957600080fd5b80638e098ca11461021f57806397a6278e14610232578063a8d29d1d14610245578063b9209e331461025857600080fd5b8063670af6a9116100e9578063670af6a9146101a9578063715018a6146101bc5780637e42683b146101c457806384e79842146101fb5780638da5cb5b1461020e57600080fd5b80631ffbb0641461011b57806326d941ae1461015c5780633b3e12f4146101715780633dedafa714610196575b600080fd5b610147610129366004610df9565b6001600160a01b031660009081526003602052604090205460ff1690565b60405190151581526020015b60405180910390f35b61016f61016a366004610df9565b6102fc565b005b6005546001600160a01b03165b6040516001600160a01b039091168152602001610153565b61016f6101a4366004610e67565b61034e565b61016f6101b7366004610df9565b6105f5565b61016f610647565b6101ed6101d2366004610df9565b6001600160a01b031660009081526002602052604090205490565b604051908152602001610153565b61016f610209366004610df9565b61065b565b6000546001600160a01b031661017e565b61016f61022d366004610f01565b6106fd565b61016f610240366004610df9565b6108df565b61016f610253366004610df9565b61098f565b610147610266366004610df9565b6001600160a01b0390811660009081526001602052604090205416151590565b61016f610294366004610f34565b610a95565b61017e6102a7366004610df9565b6001600160a01b039081166000908152600160205260409020541690565b6004546001600160a01b031661017e565b61016f6102e4366004610df9565b610b8f565b61016f6102f7366004610f5e565b610bcd565b610304610d60565b600480546001600160a01b0319166001600160a01b0383169081179091556040517fb7ad42dc93d5634698ff03ceffe0332fcf92508bb99f944b9e0e265166a141b590600090a250565b3360009081526003602052604090205460ff168061037657506000546001600160a01b031633145b61039b5760405162461bcd60e51b815260040161039290610f9a565b60405180910390fd5b84831480156103a957508281145b6103ee5760405162461bcd60e51b8152602060048201526016602482015275082e4e4c2f2e640d8cadccee8d040dad2e6dac2e8c6d60531b6044820152606401610392565b60005b858110156105ec57600060018189898581811061041057610410610fc7565b90506020020160208101906104259190610df9565b6001600160a01b03908116825260208201929092526040016000205416036105da5784848281811061045957610459610fc7565b905060200201602081019061046e9190610df9565b6001600089898581811061048457610484610fc7565b90506020020160208101906104999190610df9565b6001600160a01b039081168252602082019290925260400160002080546001600160a01b031916929091169190911790558282828181106104dc576104dc610fc7565b90506020020135600260008989858181106104f9576104f9610fc7565b905060200201602081019061050e9190610df9565b6001600160a01b0316815260208101919091526040016000205584848281811061053a5761053a610fc7565b905060200201602081019061054f9190610df9565b6001600160a01b031687878381811061056a5761056a610fc7565b905060200201602081019061057f9190610df9565b6001600160a01b03167fee3a46aef0992a11c1f1d1855ebc1908ce8764e95f38ab74ab2620e6104c8bd58585858181106105bb576105bb610fc7565b905060200201356040516105d191815260200190565b60405180910390a35b806105e481610fdd565b9150506103f1565b50505050505050565b6105fd610d60565b600580546001600160a01b0319166001600160a01b0383169081179091556040517f02ee988a26cd243133be3b872131c57da6ed02ba948d0b5d0c389ec11bd0db8b90600090a250565b61064f610d60565b6106596000610d8d565b565b610663610d60565b6001600160a01b0381166106b15760405162461bcd60e51b8152602060048201526015602482015274496e76616c6964206167656e74206164647265737360581b6044820152606401610392565b6001600160a01b038116600081815260036020526040808220805460ff19166001179055517f3685760e10f4d195c7f8b49e31fe2eb403f5c033f958f1bd6c68330b3aed3de09190a250565b3360009081526003602052604090205460ff168061072557506000546001600160a01b031633145b6107415760405162461bcd60e51b815260040161039290610f9a565b6001600160a01b0382166107675760405162461bcd60e51b815260040161039290611004565b6001600160a01b0381166107b85760405162461bcd60e51b8152602060048201526018602482015277496e76616c6964206964656e74697479206164647265737360401b6044820152606401610392565b6001600160a01b03828116600090815260016020526040902054166107ef5760405162461bcd60e51b815260040161039290611032565b6001600160a01b0380831660008181526001602052604080822080548686166001600160a01b031982161790915590519316928392917f59d6590e225b81befe259af056324092801080acbb7feab310eb34678871f32791a36001600160a01b03838116600081815260026020908152604091829020549151918252928516927fee3a46aef0992a11c1f1d1855ebc1908ce8764e95f38ab74ab2620e6104c8bd5910160405180910390a3816001600160a01b0316836001600160a01b03167fe98082932c8056a0f514da9104e4a66bc2cbaef102ad59d90c4b24220ebf601060405160405180910390a3505050565b6108e7610d60565b6001600160a01b03811660009081526003602052604090205460ff166109465760405162461bcd60e51b81526020600482015260146024820152731059d95b9d08191bd95cc81b9bdd08195e1a5cdd60621b6044820152606401610392565b6001600160a01b038116600081815260036020526040808220805460ff19169055517f991115b1300b86fe5b5945a69d895972c752b6daaf568064f5b7eb48478febd49190a250565b3360009081526003602052604090205460ff16806109b757506000546001600160a01b031633145b6109d35760405162461bcd60e51b815260040161039290610f9a565b6001600160a01b0381166109f95760405162461bcd60e51b815260040161039290611004565b6001600160a01b0381811660009081526001602052604090205416610a305760405162461bcd60e51b815260040161039290611032565b6001600160a01b03808216600081815260016020908152604080832080546001600160a01b031981169091556002909252808320839055519316928392917f59d6590e225b81befe259af056324092801080acbb7feab310eb34678871f32791a35050565b3360009081526003602052604090205460ff1680610abd57506000546001600160a01b031633145b610ad95760405162461bcd60e51b815260040161039290610f9a565b6001600160a01b038216610aff5760405162461bcd60e51b815260040161039290611004565b6001600160a01b0382811660009081526001602052604090205416610b365760405162461bcd60e51b815260040161039290611032565b6001600160a01b03821660008181526002602052604090819020839055517fcc7adfa2aa1bc5d0d37cc6eb05d95a7b398a333855506a3850a10625b444ac5790610b839084815260200190565b60405180910390a25050565b610b97610d60565b6001600160a01b038116610bc157604051631e4fbdf760e01b815260006004820152602401610392565b610bca81610d8d565b50565b3360009081526003602052604090205460ff1680610bf557506000546001600160a01b031633145b610c115760405162461bcd60e51b815260040161039290610f9a565b6001600160a01b038316610c375760405162461bcd60e51b815260040161039290611004565b6001600160a01b038216610c885760405162461bcd60e51b8152602060048201526018602482015277496e76616c6964206964656e74697479206164647265737360401b6044820152606401610392565b6001600160a01b038381166000908152600160205260409020541615610cf05760405162461bcd60e51b815260206004820152601b60248201527f4964656e7469747920616c7265616479207265676973746572656400000000006044820152606401610392565b6001600160a01b03838116600081815260016020908152604080832080546001600160a01b0319169588169586179055600282529182902085905590518481527fee3a46aef0992a11c1f1d1855ebc1908ce8764e95f38ab74ab2620e6104c8bd5910160405180910390a3505050565b6000546001600160a01b031633146106595760405163118cdaa760e01b8152336004820152602401610392565b600080546001600160a01b038381166001600160a01b0319831681178455604051919092169283917f8be0079c531659141344cd1fd0a4f28419497f9722a3daafe3b4186f6b6457e09190a35050565b80356001600160a01b0381168114610df457600080fd5b919050565b600060208284031215610e0b57600080fd5b610e1482610ddd565b9392505050565b60008083601f840112610e2d57600080fd5b50813567ffffffffffffffff811115610e4557600080fd5b6020830191508360208260051b8501011115610e6057600080fd5b9250929050565b60008060008060008060608789031215610e8057600080fd5b863567ffffffffffffffff80821115610e9857600080fd5b610ea48a838b01610e1b565b90985096506020890135915080821115610ebd57600080fd5b610ec98a838b01610e1b565b90965094506040890135915080821115610ee257600080fd5b50610eef89828a01610e1b565b979a9699509497509295939492505050565b60008060408385031215610f1457600080fd5b610f1d83610ddd565b9150610f2b60208401610ddd565b90509250929050565b60008060408385031215610f4757600080fd5b610f5083610ddd565b946020939093013593505050565b600080600060608486031215610f7357600080fd5b610f7c84610ddd565b9250610f8a60208501610ddd565b9150604084013590509250925092565b60208082526013908201527227b7363c9030b3b2b73a1037b91037bbb732b960691b604082015260600190565b634e487b7160e01b600052603260045260246000fd5b600060018201610ffd57634e487b7160e01b600052601160045260246000fd5b5060010190565b602080825260149082015273496e76616c69642075736572206164647265737360601b604082015260600190565b6020808252601290820152711259195b9d1a5d1e481b9bdd08199bdd5b9960721b60408201526060019056fea2646970667358221220ae2172b41b11ac09483a4f53fc5768af1051e1dccea4c5e75d4247fca494599f64736f6c63430008140033",
  "linkReferences": {},
  "deployedLinkReferences": {}
}